{
  "contractName": "Bounty",
  "abi": [
    {
      "inputs": [],
      "payable": false,
      "stateMutability": "nonpayable",
      "type": "constructor"
    },
    {
      "anonymous": false,
      "inputs": [
        {
          "indexed": true,
          "internalType": "address",
          "name": "owner",
          "type": "address"
        }
      ],
      "name": "ActivateContract",
      "type": "event"
    },
    {
      "anonymous": false,
      "inputs": [
        {
          "indexed": false,
          "internalType": "uint32",
          "name": "_bountyId",
          "type": "uint32"
        },
        {
          "indexed": true,
          "internalType": "address",
          "name": "poster",
          "type": "address"
        },
        {
          "indexed": false,
          "internalType": "uint256",
          "name": "payoutAmount",
          "type": "uint256"
        }
      ],
      "name": "BountyPosted",
      "type": "event"
    },
    {
      "anonymous": false,
      "inputs": [
        {
          "indexed": true,
          "internalType": "address",
          "name": "submitter",
          "type": "address"
        },
        {
          "indexed": false,
          "internalType": "uint256",
          "name": "bountyAmount",
          "type": "uint256"
        }
      ],
      "name": "PaymentWithdrawn",
      "type": "event"
    },
    {
      "anonymous": false,
      "inputs": [
        {
          "indexed": true,
          "internalType": "address",
          "name": "owner",
          "type": "address"
        }
      ],
      "name": "StopContract",
      "type": "event"
    },
    {
      "anonymous": false,
      "inputs": [
        {
          "indexed": false,
          "internalType": "uint32",
          "name": "_bountyId",
          "type": "uint32"
        },
        {
          "indexed": true,
          "internalType": "address",
          "name": "submitter",
          "type": "address"
        }
      ],
      "name": "WorkAccepted",
      "type": "event"
    },
    {
      "payable": true,
      "stateMutability": "payable",
      "type": "fallback"
    },
    {
      "constant": true,
      "inputs": [],
      "name": "bountyIndex",
      "outputs": [
        {
          "internalType": "uint32",
          "name": "",
          "type": "uint32"
        }
      ],
      "payable": false,
      "stateMutability": "view",
      "type": "function"
    },
    {
      "constant": true,
      "inputs": [
        {
          "internalType": "uint32",
          "name": "",
          "type": "uint32"
        }
      ],
      "name": "bountyList",
      "outputs": [
        {
          "internalType": "uint32",
          "name": "bountyId",
          "type": "uint32"
        },
        {
          "internalType": "address",
          "name": "poster",
          "type": "address"
        },
        {
          "internalType": "string",
          "name": "jobDescription",
          "type": "string"
        },
        {
          "internalType": "uint256",
          "name": "payoutAmount",
          "type": "uint256"
        },
        {
          "internalType": "string",
          "name": "payoutType",
          "type": "string"
        },
        {
          "internalType": "uint256",
          "name": "datePosted",
          "type": "uint256"
        },
        {
          "internalType": "uint256",
          "name": "dateAccepted",
          "type": "uint256"
        },
        {
          "internalType": "bool",
          "name": "accepted",
          "type": "bool"
        },
        {
          "internalType": "address payable",
          "name": "bountyWinner",
          "type": "address"
        }
      ],
      "payable": false,
      "stateMutability": "view",
      "type": "function"
    },
    {
      "constant": true,
      "inputs": [
        {
          "internalType": "address",
          "name": "",
          "type": "address"
        },
        {
          "internalType": "uint256",
          "name": "",
          "type": "uint256"
        }
      ],
      "name": "jobHunters",
      "outputs": [
        {
          "internalType": "uint32",
          "name": "",
          "type": "uint32"
        }
      ],
      "payable": false,
      "stateMutability": "view",
      "type": "function"
    },
    {
      "constant": true,
      "inputs": [
        {
          "internalType": "address",
          "name": "",
          "type": "address"
        },
        {
          "internalType": "uint256",
          "name": "",
          "type": "uint256"
        }
      ],
      "name": "jobPosters",
      "outputs": [
        {
          "internalType": "uint32",
          "name": "",
          "type": "uint32"
        }
      ],
      "payable": false,
      "stateMutability": "view",
      "type": "function"
    },
    {
      "constant": true,
      "inputs": [],
      "name": "owner",
      "outputs": [
        {
          "internalType": "address",
          "name": "",
          "type": "address"
        }
      ],
      "payable": false,
      "stateMutability": "view",
      "type": "function"
    },
    {
      "constant": true,
      "inputs": [
        {
          "internalType": "address",
          "name": "",
          "type": "address"
        }
      ],
      "name": "pendingPayOut",
      "outputs": [
        {
          "internalType": "uint256",
          "name": "",
          "type": "uint256"
        }
      ],
      "payable": false,
      "stateMutability": "view",
      "type": "function"
    },
    {
      "constant": true,
      "inputs": [],
      "name": "stopped",
      "outputs": [
        {
          "internalType": "bool",
          "name": "",
          "type": "bool"
        }
      ],
      "payable": false,
      "stateMutability": "view",
      "type": "function"
    },
    {
      "constant": true,
      "inputs": [
        {
          "internalType": "uint32",
          "name": "",
          "type": "uint32"
        },
        {
          "internalType": "uint256",
          "name": "",
          "type": "uint256"
        }
      ],
      "name": "submissionList",
      "outputs": [
        {
          "internalType": "address",
          "name": "submitter",
          "type": "address"
        },
        {
          "internalType": "string",
          "name": "submission",
          "type": "string"
        }
      ],
      "payable": false,
      "stateMutability": "view",
      "type": "function"
    },
    {
      "constant": false,
      "inputs": [],
      "name": "stopContract",
      "outputs": [],
      "payable": false,
      "stateMutability": "nonpayable",
      "type": "function"
    },
    {
      "constant": false,
      "inputs": [],
      "name": "activateContract",
      "outputs": [],
      "payable": false,
      "stateMutability": "nonpayable",
      "type": "function"
    },
    {
      "constant": false,
      "inputs": [
        {
          "internalType": "string",
          "name": "_jd",
          "type": "string"
        },
        {
          "internalType": "uint256",
          "name": "_payoutAmount",
          "type": "uint256"
        },
        {
          "internalType": "string",
          "name": "_payoutType",
          "type": "string"
        }
      ],
      "name": "createBounty",
      "outputs": [
        {
          "internalType": "bool",
          "name": "",
          "type": "bool"
        }
      ],
      "payable": false,
      "stateMutability": "nonpayable",
      "type": "function"
    },
    {
      "constant": true,
      "inputs": [],
      "name": "viewMyBounties",
      "outputs": [
        {
          "internalType": "uint32[]",
          "name": "",
          "type": "uint32[]"
        }
      ],
      "payable": false,
      "stateMutability": "view",
      "type": "function"
    },
    {
      "constant": true,
      "inputs": [
        {
          "internalType": "uint32",
          "name": "_bountyid",
          "type": "uint32"
        }
      ],
      "name": "getNumberOfSubsForBounty",
      "outputs": [
        {
          "internalType": "uint32",
          "name": "",
          "type": "uint32"
        }
      ],
      "payable": false,
      "stateMutability": "view",
      "type": "function"
    },
    {
      "constant": false,
      "inputs": [
        {
          "internalType": "uint32",
          "name": "_bountyId",
          "type": "uint32"
        },
        {
          "internalType": "string",
          "name": "_workSubmission",
          "type": "string"
        }
      ],
      "name": "submitWork",
      "outputs": [
        {
          "internalType": "bool",
          "name": "success",
          "type": "bool"
        }
      ],
      "payable": false,
      "stateMutability": "nonpayable",
      "type": "function"
    },
    {
      "constant": false,
      "inputs": [
        {
          "internalType": "uint32",
          "name": "_bountyId",
          "type": "uint32"
        },
        {
          "internalType": "address payable",
          "name": "_jobHunter",
          "type": "address"
        }
      ],
      "name": "acceptWork",
      "outputs": [
        {
          "internalType": "bool",
          "name": "success",
          "type": "bool"
        }
      ],
      "payable": true,
      "stateMutability": "payable",
      "type": "function"
    },
    {
      "constant": false,
      "inputs": [],
      "name": "withdrawMyPayout",
      "outputs": [
        {
          "internalType": "uint256",
          "name": "",
          "type": "uint256"
        }
      ],
      "payable": false,
      "stateMutability": "nonpayable",
      "type": "function"
    }
  ],
  "bytecode": "0x608060405260008060006101000a81548163ffffffff021916908363ffffffff16021790555060008060186101000a81548160ff02191690831515021790555034801561004b57600080fd5b5033600060046101000a81548173ffffffffffffffffffffffffffffffffffffffff021916908373ffffffffffffffffffffffffffffffffffffffff160217905550611ce08061009c6000396000f3fe6080604052600436106100f35760003560e01c80638bd6262e1161008a578063be4b99b411610059578063be4b99b414610630578063c037b2e714610695578063cb3e08d614610854578063ddc3d3ae1461094b576100f3565b80638bd6262e1461052b5780638da5cb5b146105565780638fda356d146105ad578063940cfbdb146105c4576100f3565b80634458f7c3116100c65780634458f7c3146103305780636ac80f2a146103ab578063737b49b01461049b57806375f12b21146104fc576100f3565b806312253a6c146100f5578063193bc3491461010c57806324b57c821461028d5780633c757d55146102c4575b005b34801561010157600080fd5b5061010a6109c6565b005b34801561011857600080fd5b506102736004803603606081101561012f57600080fd5b810190808035906020019064010000000081111561014c57600080fd5b82018360208201111561015e57600080fd5b8035906020019184600183028401116401000000008311171561018057600080fd5b91908080601f016020809104026020016040519081016040528093929190818152602001838380828437600081840152601f19601f82011690508083019250505050505050919291929080359060200190929190803590602001906401000000008111156101ed57600080fd5b8201836020820111156101ff57600080fd5b8035906020019184600183028401116401000000008311171561022157600080fd5b91908080601f016020809104026020016040519081016040528093929190818152602001838380828437600081840152601f19601f820116905080830192505050505050509192919290505050610aa2565b604051808215151515815260200191505060405180910390f35b34801561029957600080fd5b506102a2610e33565b604051808263ffffffff1663ffffffff16815260200191505060405180910390f35b610316600480360360408110156102da57600080fd5b81019080803563ffffffff169060200190929190803573ffffffffffffffffffffffffffffffffffffffff169060200190929190505050610e48565b604051808215151515815260200191505060405180910390f35b34801561033c57600080fd5b506103896004803603604081101561035357600080fd5b81019080803573ffffffffffffffffffffffffffffffffffffffff1690602001909291908035906020019092919050505061110c565b604051808263ffffffff1663ffffffff16815260200191505060405180910390f35b3480156103b757600080fd5b50610481600480360360408110156103ce57600080fd5b81019080803563ffffffff169060200190929190803590602001906401000000008111156103fb57600080fd5b82018360208201111561040d57600080fd5b8035906020019184600183028401116401000000008311171561042f57600080fd5b91908080601f016020809104026020016040519081016040528093929190818152602001838380828437600081840152601f19601f820116905080830192505050505050509192919290505050611152565b604051808215151515815260200191505060405180910390f35b3480156104a757600080fd5b506104da600480360360208110156104be57600080fd5b81019080803563ffffffff16906020019092919050505061130e565b604051808263ffffffff1663ffffffff16815260200191505060405180910390f35b34801561050857600080fd5b5061051161133f565b604051808215151515815260200191505060405180910390f35b34801561053757600080fd5b50610540611352565b6040518082815260200191505060405180910390f35b34801561056257600080fd5b5061056b61152c565b604051808273ffffffffffffffffffffffffffffffffffffffff1673ffffffffffffffffffffffffffffffffffffffff16815260200191505060405180910390f35b3480156105b957600080fd5b506105c2611552565b005b3480156105d057600080fd5b506105d961162d565b6040518080602001828103825283818151815260200191508051906020019060200280838360005b8381101561061c578082015181840152602081019050610601565b505050509050019250505060405180910390f35b34801561063c57600080fd5b5061067f6004803603602081101561065357600080fd5b81019080803573ffffffffffffffffffffffffffffffffffffffff1690602001909291905050506116ee565b6040518082815260200191505060405180910390f35b3480156106a157600080fd5b506106d4600480360360208110156106b857600080fd5b81019080803563ffffffff169060200190929190505050611706565b604051808a63ffffffff1663ffffffff1681526020018973ffffffffffffffffffffffffffffffffffffffff1673ffffffffffffffffffffffffffffffffffffffff1681526020018060200188815260200180602001878152602001868152602001851515151581526020018473ffffffffffffffffffffffffffffffffffffffff1673ffffffffffffffffffffffffffffffffffffffff16815260200183810383528a818151815260200191508051906020019080838360005b838110156107aa57808201518184015260208101905061078f565b50505050905090810190601f1680156107d75780820380516001836020036101000a031916815260200191505b50838103825288818151815260200191508051906020019080838360005b838110156108105780820151818401526020810190506107f5565b50505050905090810190601f16801561083d5780820380516001836020036101000a031916815260200191505b509b50505050505050505050505060405180910390f35b34801561086057600080fd5b5061089d6004803603604081101561087757600080fd5b81019080803563ffffffff169060200190929190803590602001909291905050506118e1565b604051808373ffffffffffffffffffffffffffffffffffffffff1673ffffffffffffffffffffffffffffffffffffffff16815260200180602001828103825283818151815260200191508051906020019080838360005b8381101561090f5780820151818401526020810190506108f4565b50505050905090810190601f16801561093c5780820380516001836020036101000a031916815260200191505b50935050505060405180910390f35b34801561095757600080fd5b506109a46004803603604081101561096e57600080fd5b81019080803573ffffffffffffffffffffffffffffffffffffffff169060200190929190803590602001909291905050506119d7565b604051808263ffffffff1663ffffffff16815260200191505060405180910390f35b600060049054906101000a900473ffffffffffffffffffffffffffffffffffffffff1673ffffffffffffffffffffffffffffffffffffffff163373ffffffffffffffffffffffffffffffffffffffff1614610a2057600080fd5b6001600060186101000a81548160ff021916908315150217905550600060049054906101000a900473ffffffffffffffffffffffffffffffffffffffff1673ffffffffffffffffffffffffffffffffffffffff167f821c122aa172738b00214a063fd0a26d403dd07f1eeb49f50f305ce63aceb76360405160405180910390a2565b60008060189054906101000a900460ff1615610abd57600080fd5b600184511080610ace575060008311155b15610adc5760009050610e2c565b60003390506040518061012001604052806000809054906101000a900463ffffffff1663ffffffff1681526020018273ffffffffffffffffffffffffffffffffffffffff16815260200186815260200185815260200184815260200142815260200160008152602001600015158152602001600073ffffffffffffffffffffffffffffffffffffffff16815250600160008060009054906101000a900463ffffffff1663ffffffff1663ffffffff16815260200190815260200160002060008201518160000160006101000a81548163ffffffff021916908363ffffffff16021790555060208201518160000160046101000a81548173ffffffffffffffffffffffffffffffffffffffff021916908373ffffffffffffffffffffffffffffffffffffffff1602179055506040820151816001019080519060200190610c23929190611bbf565b50606082015181600201556080820151816003019080519060200190610c4a929190611bbf565b5060a0820151816004015560c0820151816005015560e08201518160060160006101000a81548160ff0219169083151502179055506101008201518160060160016101000a81548173ffffffffffffffffffffffffffffffffffffffff021916908373ffffffffffffffffffffffffffffffffffffffff160217905550905050600360008273ffffffffffffffffffffffffffffffffffffffff1673ffffffffffffffffffffffffffffffffffffffff1681526020019081526020016000206000809054906101000a900463ffffffff16908060018154018082558091505090600182039060005260206000209060089182820401919006600402909192909190916101000a81548163ffffffff021916908363ffffffff160217905550508073ffffffffffffffffffffffffffffffffffffffff167f7556827093925e952f82a825033260e1138bec03e70d27b9d7f515607ca910af6000809054906101000a900463ffffffff1686604051808363ffffffff1663ffffffff1681526020018281526020019250505060405180910390a2610e0760016000809054906101000a900463ffffffff1663ffffffff16611a1d90919063ffffffff16565b6000806101000a81548163ffffffff021916908363ffffffff16021790555060019150505b9392505050565b6000809054906101000a900463ffffffff1681565b6000600160008463ffffffff1663ffffffff1681526020019081526020016000206002015480341015610e7a57600080fd5b60009150600160008563ffffffff1663ffffffff16815260200190815260200160002060000160049054906101000a900473ffffffffffffffffffffffffffffffffffffffff1673ffffffffffffffffffffffffffffffffffffffff163373ffffffffffffffffffffffffffffffffffffffff16148015610f285750600160008563ffffffff1663ffffffff16815260200190815260200160002060060160009054906101000a900460ff16155b156111055782600160008663ffffffff1663ffffffff16815260200190815260200160002060060160016101000a81548173ffffffffffffffffffffffffffffffffffffffff021916908373ffffffffffffffffffffffffffffffffffffffff16021790555060018060008663ffffffff1663ffffffff16815260200190815260200160002060060160006101000a81548160ff02191690831515021790555042600160008663ffffffff1663ffffffff16815260200190815260200160002060050181905550611063600160008663ffffffff1663ffffffff16815260200190815260200160002060020154600560008673ffffffffffffffffffffffffffffffffffffffff1673ffffffffffffffffffffffffffffffffffffffff16815260200190815260200160002054611ab190919063ffffffff16565b600560008573ffffffffffffffffffffffffffffffffffffffff1673ffffffffffffffffffffffffffffffffffffffff168152602001908152602001600020819055508273ffffffffffffffffffffffffffffffffffffffff167fa7ab30991f17ce3ed474d8f64480eacf062170aac81d09b5b942e87c7e900d2685604051808263ffffffff1663ffffffff16815260200191505060405180910390a2600191505b5092915050565b6003602052816000526040600020818154811061112557fe5b9060005260206000209060089182820401919006600402915091509054906101000a900463ffffffff1681565b60008060189054906101000a900460ff161561116d57600080fd5b60009050600160008463ffffffff1663ffffffff16815260200190815260200160002060060160009054906101000a900460ff168061121957503373ffffffffffffffffffffffffffffffffffffffff16600160008563ffffffff1663ffffffff16815260200190815260200160002060000160049054906101000a900473ffffffffffffffffffffffffffffffffffffffff1673ffffffffffffffffffffffffffffffffffffffff16145b156112275760009050611308565b600260008463ffffffff1663ffffffff16815260200190815260200160002060405180604001604052803373ffffffffffffffffffffffffffffffffffffffff168152602001848152509080600181540180825580915050906001820390600052602060002090600202016000909192909190915060008201518160000160006101000a81548173ffffffffffffffffffffffffffffffffffffffff021916908373ffffffffffffffffffffffffffffffffffffffff16021790555060208201518160010190805190602001906112ff929190611bbf565b50505050600190505b92915050565b600080600260008463ffffffff1663ffffffff16815260200190815260200160002090508080549050915050919050565b600060189054906101000a900460ff1681565b6000803390506000600560008373ffffffffffffffffffffffffffffffffffffffff1673ffffffffffffffffffffffffffffffffffffffff16815260200190815260200160002054905060008114156113b057600092505050611529565b6000600560008473ffffffffffffffffffffffffffffffffffffffff1673ffffffffffffffffffffffffffffffffffffffff168152602001908152602001600020819055506000611412670de0b6b3a764000083611b3990919063ffffffff16565b905060008373ffffffffffffffffffffffffffffffffffffffff168260405180600001905060006040518083038185875af1925050503d8060008114611474576040519150601f19603f3d011682016040523d82523d6000602084013e611479565b606091505b50509050806114d3576040517f08c379a0000000000000000000000000000000000000000000000000000000008152600401808060200182810382526023815260200180611c656023913960400191505060405180910390fd5b8373ffffffffffffffffffffffffffffffffffffffff167f84511ecc081974f18e7f3e0dcc19db078b55bbd3852ddd0dd85b3aebb7bf94c2846040518082815260200191505060405180910390a2829450505050505b90565b600060049054906101000a900473ffffffffffffffffffffffffffffffffffffffff1681565b600060049054906101000a900473ffffffffffffffffffffffffffffffffffffffff1673ffffffffffffffffffffffffffffffffffffffff163373ffffffffffffffffffffffffffffffffffffffff16146115ac57600080fd5b60008060186101000a81548160ff021916908315150217905550600060049054906101000a900473ffffffffffffffffffffffffffffffffffffffff1673ffffffffffffffffffffffffffffffffffffffff167f2d7e934491ea2098cfad21c82e4adf686c7b588c91349cb33109e4e9f5c0ce1960405160405180910390a2565b6060600360003373ffffffffffffffffffffffffffffffffffffffff1673ffffffffffffffffffffffffffffffffffffffff1681526020019081526020016000208054806020026020016040519081016040528092919081815260200182805480156116e457602002820191906000526020600020906000905b82829054906101000a900463ffffffff1663ffffffff16815260200190600401906020826003010492830192600103820291508084116116a75790505b5050505050905090565b60056020528060005260406000206000915090505481565b60016020528060005260406000206000915090508060000160009054906101000a900463ffffffff16908060000160049054906101000a900473ffffffffffffffffffffffffffffffffffffffff1690806001018054600181600116156101000203166002900480601f0160208091040260200160405190810160405280929190818152602001828054600181600116156101000203166002900480156117ee5780601f106117c3576101008083540402835291602001916117ee565b820191906000526020600020905b8154815290600101906020018083116117d157829003601f168201915b505050505090806002015490806003018054600181600116156101000203166002900480601f0160208091040260200160405190810160405280929190818152602001828054600181600116156101000203166002900480156118925780601f1061186757610100808354040283529160200191611892565b820191906000526020600020905b81548152906001019060200180831161187557829003601f168201915b5050505050908060040154908060050154908060060160009054906101000a900460ff16908060060160019054906101000a900473ffffffffffffffffffffffffffffffffffffffff16905089565b600260205281600052604060002081815481106118fa57fe5b9060005260206000209060020201600091509150508060000160009054906101000a900473ffffffffffffffffffffffffffffffffffffffff1690806001018054600181600116156101000203166002900480601f0160208091040260200160405190810160405280929190818152602001828054600181600116156101000203166002900480156119cd5780601f106119a2576101008083540402835291602001916119cd565b820191906000526020600020905b8154815290600101906020018083116119b057829003601f168201915b5050505050905082565b600460205281600052604060002081815481106119f057fe5b9060005260206000209060089182820401919006600402915091509054906101000a900463ffffffff1681565b60008082840190508363ffffffff168163ffffffff161015611aa7576040517f08c379a000000000000000000000000000000000000000000000000000000000815260040180806020018281038252601d8152602001807f536166654d61746833323a206164646974696f6e206f766572666c6f7700000081525060200191505060405180910390fd5b8091505092915050565b600080828401905083811015611b2f576040517f08c379a000000000000000000000000000000000000000000000000000000000815260040180806020018281038252601e8152602001807f536166654d6174683235363a206164646974696f6e206f766572666c6f77000081525060200191505060405180910390fd5b8091505092915050565b600080831415611b4c5760009050611bb9565b6000828402905082848281611b5d57fe5b0414611bb4576040517f08c379a0000000000000000000000000000000000000000000000000000000008152600401808060200182810382526024815260200180611c886024913960400191505060405180910390fd5b809150505b92915050565b828054600181600116156101000203166002900490600052602060002090601f016020900481019282601f10611c0057805160ff1916838001178555611c2e565b82800160010185558215611c2e579182015b82811115611c2d578251825591602001919060010190611c12565b5b509050611c3b9190611c3f565b5090565b611c6191905b80821115611c5d576000816000905550600101611c45565b5090565b9056fe5472616e7366657220746f20626f756e74792077696e6e6572206661696c6564212121536166654d6174683235363a206d756c7469706c69636174696f6e206f766572666c6f77a265627a7a72315820e11f556a1738afda48f038956574ab57370bd5f41ef8b43166d64b3e4ade850c64736f6c63430005100032",
  "source": "pragma solidity >=0.4.21 <0.7.0;\n\nimport \"./SafeMath32.sol\";\nimport \"./SafeMath256.sol\";\n\n/// @title A contract to handle bounties for work items\n/// @author Joseph M. Samake - Final project - Consensys Bootcamp Nov. 2020\n/// @notice You can use this contract only for demo purposes\n/// @dev this contract implements a circuit-braker pattern and SafeMath libs\ncontract Bounty {\n\n  using SafeMath32 for uint32;\n  using SafeMath256 for uint256;\n  \n  /* State variables */\n \n  // represents the current index of the bounty counter\n  uint32 public bountyIndex = 0;\n  // rep the owner of this contract at deploy time\n  address public owner;\n  // used for circuit-breaker pattern\n  bool public stopped = false;\n\n  /* This struct encapsulates the items needed to describe a submission for a work bounty\n     - submitter: is the address (EOA) of the person submitting the work\n     - submission: is the actual work submission \n  */\n  struct WorkSubmission{\n    address submitter;\n    string submission;\n  }\n  \n  /* This struct encapsulates the items needed to describe a work bounty   */\n  struct WorkItem {\n    uint32 bountyId;              // an id given to the created bounty\n    address poster;               // the address (EOA) of the person posting the work bounty\n    string jobDescription;        // the job description of the work\n    uint256 payoutAmount;         // the amount to be paid when the submission is accepted, in ETH by default\n    string payoutType;            // the type of payout: ie ETH vs other token; not used this version\n    uint datePosted;              // date the work bounty was posted; not used this version\n    uint dateAccepted;            // date submission is accepted by the bounty poster; not used this version\n    bool accepted;                // status of work bounty: already accepted or not\n    address payable bountyWinner; // payable address (EOA) of the bounty winner\n  }\n\n  // maps all bountyid to workitem; this list has a record of all the bounties handled in this contract\n  mapping(uint32 => WorkItem) public bountyList;\n  // maps a given bountyid to worksubmissions submitted for it; i.e they can be several submissions for the same bounty\n  mapping(uint32 => WorkSubmission[]) public submissionList;\n  // maps bounty posters to the bountyid they've created\n  mapping(address => uint32[]) public jobPosters;\n  // maps jobhunters to the bountyid they've submitted for\n  mapping(address => uint32[]) public jobHunters;\n  // tracks all balances for winning jobhunters\n  mapping(address => uint256) public pendingPayOut;\n  \n  /* Events */\n\n  // emitted when a work bounty is posted\n  event BountyPosted(\n    uint32 _bountyId,\n    address indexed poster,\n    uint256 payoutAmount  \n  );\n  \n  // emitted when a work bounty is accepted by a submitter\n  event WorkAccepted(\n    uint32 _bountyId,\n    address indexed submitter\n  );\n  // emitted when a bounty hunter withdraws his earnings\n  event PaymentWithdrawn(\n    address indexed submitter,\n    uint256 bountyAmount \n  );\n  // emitted when the contract is stopped in emergency by admin or owner\n  event StopContract(\n    address indexed owner   \n  );\n  // emitted when the contract is re-activated after an emergency stop by admin or owner\n  event ActivateContract(\n    address indexed owner   \n  );\n\n  /* Modifiers */\n\n  // applies to function which must be deactivated in emergency stop\n  modifier stopInEmergency { require(!stopped); _; }\n  // applies to function can operate while in emergency stop\n  modifier onlyInEmergency { require(stopped); _; }\n  // applies to acceptWork function to insure that enough value was sent to cover the bounty.\n  modifier paidEnough(uint256 _amount) { \n    require(msg.value >= _amount); \n    _; \n  }\n\n  constructor() public {\n\t\t owner = msg.sender;\n  }\n\n  // accepts eth funds by default; used as an escrow to hold bounty posters funds\n  function () external payable {}\n\n\n  /// @notice Emergency stop contract in circuit-breaker pattern\n  /// @dev account which deployed the contract is considered the owner thats's allowed to manipulate the stopped state var\n  function stopContract() public {\n     require(msg.sender == owner);\n     stopped = true;\n     emit StopContract(owner);\n  }\n\n  /// @notice re-activate contract in circuit-breaker pattern\n  /// @dev account which deployed the contract is considered the owner thats's allowed to manipulate the stopped state var\n  function activateContract() public {\n     require(msg.sender == owner);\n     stopped = false;\n     emit ActivateContract(owner);\n  }\n\n\n  /// @notice Create and post a new work bounty\n  /// @dev fonction is deactivated in emergency stop procedure via the stopInEmergency modifier\n  /// @param _jd: The job/work description for the bounty\n  /// @param _payoutAmount: The payout amount for the bounty\n  /// @param _payoutType: specified if a different currency is used instead of native ETH\n  /// @return success: boolean for successful operation or not\n  function createBounty(string memory _jd, uint256 _payoutAmount, string memory _payoutType) \n           stopInEmergency public returns (bool) {\n   \n    // do some SC side validations\n    // insure job descrp & payout amount are valid\n    if ( bytes(_jd).length < 1 ||  !(_payoutAmount > 0))\n       return false;\n\n    address _trxSender = msg.sender;\n\n    bountyList[bountyIndex] = WorkItem({\n              bountyId: bountyIndex,\n              poster: _trxSender,\n              jobDescription: _jd,\n              payoutAmount: _payoutAmount,\n              payoutType: _payoutType,\n              datePosted: block.timestamp,\n              dateAccepted: 0,\n              accepted: false,\n              bountyWinner: address(0)\n          });\n      \n    // push bounty to specific job poster\n    jobPosters[_trxSender].push(bountyIndex);\n    emit BountyPosted(bountyIndex, _trxSender, _payoutAmount);\n\n    // use safemath lib to incr bounty index/count\n    bountyIndex = bountyIndex.add(1);\n\n    return true;\n  }\n  \n\n  /// @notice retrieves the list of bounties assigned to a given jobposter, the caller\n  /// @dev the uint32[] represents the unique id, not necessarily sequential, assigned to each bounty posted by the caller\n  /// @return uint32[]: array of bountyid's\n  function viewMyBounties() public view returns (uint32[] memory) {\n    return jobPosters[msg.sender];\n  }\n\n  /// @notice retrieves the number of submissions posted for a given work bounty\n  /// @dev WorkSubmission[] is a dynamic array, so we must get length at runtime\n  /// @param _bountyid: the id of the work bounty being considered\n  /// @return uint32: the number of work submissions for a given work bounty\n  function getNumberOfSubsForBounty(uint32 _bountyid) public view returns (uint32) {\n    WorkSubmission[] storage tp  = submissionList[_bountyid];\n\n    return uint32(tp.length);\n  }\n\n  /// @notice allows a bounty hunter to submit a work proposal\n  /// @dev fonction is deactivated in emergency stop procedure via the stopInEmergency modifier\n  /// @param _bountyId: the bounty id being submitted for\n  /// @param _workSubmission: the description of the work proposal\n  /// @return success: boolean for successful operation or not\n  function submitWork(uint32 _bountyId, string memory _workSubmission) stopInEmergency public returns (bool success) {\n     success = false;\n     // verify that work is NOT submitted for already closed bounty\n     // verify the submitter is NOT the poster of the bounty\n     if (bountyList[_bountyId].accepted || bountyList[_bountyId].poster == msg.sender) {      \n       success = false;\n     }\n     else {\n        submissionList[_bountyId].push(WorkSubmission({submitter: msg.sender, submission: _workSubmission}));\n        success = true;\n     }\n\n  }\n\n  /// @notice allows a job poster to accept a work proposal submitted by a job hunter\n  /// @dev this fonction receives the ETH amount corresponding to the proposed bounty amount on behalf of the contract\n  /// @param _bountyId: the bounty id for which the work is being accepted\n  /// @param _jobHunter: the address of the work submitter\n  /// @return success: boolean for successful operation or not\n  function acceptWork(uint32 _bountyId, address payable _jobHunter) public payable paidEnough(bountyList[_bountyId].payoutAmount) returns (bool success) {\n     success = false;\n        \n     // verify that only the bounty creator can accept the work for it\n     // verify that the bounty is not already accepted\n     if ((msg.sender == bountyList[_bountyId].poster) && !bountyList[_bountyId].accepted) {\n       bountyList[_bountyId].bountyWinner = _jobHunter;\n       bountyList[_bountyId].accepted = true;\n       bountyList[_bountyId].dateAccepted = block.timestamp;\n       // Register bounty amount to bounty hunter :: use Pull vs Push pattern for bounty hunters            \n       // Use SafeMath\n       pendingPayOut[_jobHunter] = pendingPayOut[_jobHunter].add(bountyList[_bountyId].payoutAmount);\n       \n       emit WorkAccepted(_bountyId, _jobHunter);\n       success = true;      \n     }    \n  }\n\n\n  /// @notice allows a bounty hunter to withdraw his cumulated earnings\n  /// @dev We're using a Pull instead of a Withdrawal pattern, allowing job hunters to withdraw their earnings on demand\n  /// @return uint256: payout just withdrawn expressed in unit of currency\n  function withdrawMyPayout() public returns (uint256) {\n     \n     address tempAddr = msg.sender;\n     uint256 ethAmount = pendingPayOut[tempAddr];\n     if (ethAmount == 0)\n       return 0;\n\n     // Effects prior to Interaction, prevent Re-Entrancy attack\n     pendingPayOut[tempAddr] = 0; \n     // convert to Wei, use SafeMath lib to prevent overflow\n     uint256 weiAmount = ethAmount.mul(10**18); \n     // transfer amount to bounty winner\n     (bool success, ) = tempAddr.call.value(weiAmount)(\"\");\n     require(success, \"Transfer to bounty winner failed!!!\"); \n     emit PaymentWithdrawn(tempAddr, ethAmount);\n\n     return ethAmount;\n  }\n  \n// End of Contract  \n}",
  "sourcePath": "C:/DevZone/Blockchain/Consensys/bootcamp/Final Projet/BountyDapp/Bootcamp2020-Final-Project/src/contracts/Bounty.sol",
  "compiler": {
    "name": "solc",
    "version": "0.5.16+commit.9c3226ce.Emscripten.clang"
  },
  "schemaVersion": "3.2.5",
  "updatedAt": "2020-12-03T19:36:47.614Z",
  "networkType": "ethereum",
  "devdoc": {
    "author": "Joseph M. Samake - Final project - Consensys Bootcamp Nov. 2020",
    "details": "this contract implements a circuit-braker pattern and SafeMath libs",
    "methods": {
      "acceptWork(uint32,address)": {
        "details": "this fonction receives the ETH amount corresponding to the proposed bounty amount on behalf of the contract",
        "params": {
          "_bountyId": ": the bounty id for which the work is being accepted",
          "_jobHunter": ": the address of the work submitter"
        },
        "return": "success: boolean for successful operation or not"
      },
      "activateContract()": {
        "details": "account which deployed the contract is considered the owner thats's allowed to manipulate the stopped state var"
      },
      "createBounty(string,uint256,string)": {
        "details": "fonction is deactivated in emergency stop procedure via the stopInEmergency modifier",
        "params": {
          "_jd": ": The job/work description for the bounty",
          "_payoutAmount": ": The payout amount for the bounty",
          "_payoutType": ": specified if a different currency is used instead of native ETH"
        },
        "return": "success: boolean for successful operation or not"
      },
      "getNumberOfSubsForBounty(uint32)": {
        "details": "WorkSubmission[] is a dynamic array, so we must get length at runtime",
        "params": {
          "_bountyid": ": the id of the work bounty being considered"
        },
        "return": "uint32: the number of work submissions for a given work bounty"
      },
      "stopContract()": {
        "details": "account which deployed the contract is considered the owner thats's allowed to manipulate the stopped state var"
      },
      "submitWork(uint32,string)": {
        "details": "fonction is deactivated in emergency stop procedure via the stopInEmergency modifier",
        "params": {
          "_bountyId": ": the bounty id being submitted for",
          "_workSubmission": ": the description of the work proposal"
        },
        "return": "success: boolean for successful operation or not"
      },
      "viewMyBounties()": {
        "details": "the uint32[] represents the unique id, not necessarily sequential, assigned to each bounty posted by the caller",
        "return": "uint32[]: array of bountyid's"
      },
      "withdrawMyPayout()": {
        "details": "We're using a Pull instead of a Withdrawal pattern, allowing job hunters to withdraw their earnings on demand",
        "return": "uint256: payout just withdrawn expressed in unit of currency"
      }
    },
    "title": "A contract to handle bounties for work items"
  },
  "userdoc": {
    "methods": {
      "acceptWork(uint32,address)": {
        "notice": "allows a job poster to accept a work proposal submitted by a job hunter"
      },
      "activateContract()": {
        "notice": "re-activate contract in circuit-breaker pattern"
      },
      "createBounty(string,uint256,string)": {
        "notice": "Create and post a new work bounty"
      },
      "getNumberOfSubsForBounty(uint32)": {
        "notice": "retrieves the number of submissions posted for a given work bounty"
      },
      "stopContract()": {
        "notice": "Emergency stop contract in circuit-breaker pattern"
      },
      "submitWork(uint32,string)": {
        "notice": "allows a bounty hunter to submit a work proposal"
      },
      "viewMyBounties()": {
        "notice": "retrieves the list of bounties assigned to a given jobposter, the caller"
      },
      "withdrawMyPayout()": {
        "notice": "allows a bounty hunter to withdraw his cumulated earnings"
      }
    },
    "notice": "You can use this contract only for demo purposes"
  }
}